:020000040800F2
:10000000F8040020C1010008FD050008F9050008FA
:10001000FB050008090200086D0A00080000000046
:10002000000000000000000000000000ED080008D3
:1000300005040008000000001F0600080D0A000863
:10004000DB010008DB010008DB010008DB01000820
:10005000DB010008DB010008DB010008DB01000810
:10006000DB010008DB010008DB010008DB01000800
:10007000DB010008DB010008DB010008DB010008F0
:10008000DB010008DB010008DB010008DB010008E0
:10009000DB010008DB010008DB010008DB010008D0
:1000A000DB010008DB010008DB010008DB010008C0
:1000B000DB010008DB010008DB010008DB010008B0
:1000C000DB010008DB010008DB010008DB010008A0
:1000D000DB010008DB010008DB010008DB01000890
:1000E000DB010008DB010008DB010008DB01000880
:1000F000DB010008DB010008DB010008DB01000870
:10010000DB010008DB010008DB010008DB0100085F
:10011000DB010008DB010008DB010008DB0100084F
:10012000DB010008DB010008DB010008DB0100083F
:10013000DB010008DB010008DB010008DB0100082F
:10014000DB010008DB010008DB010008DB0100081F
:10015000DB010008DB010008DB010008DB0100080F
:10016000DB010008DB010008DB010008DB010008FF
:10017000DB010008DB010008DB010008DB010008EF
:10018000DB010008DB010008DB010008DB010008DF
:10019000DB010008DB010008DB010008DB010008CF
:1001A000DB010008DB010008DB010008DFF80CD0F0
:1001B00000F018F8004800478D0A0008F8040020F5
:1001C0000648804706480047FEE7FEE7FEE7FEE7F1
:1001D000FEE7FEE7FEE7FEE7FEE7FEE7110A00089E
:1001E000AD010008064C074D06E0E06840F0010351
:1001F00094E8070098471034AC42F6D3FFF7DAFFD3
:10020000D00B0008F00B0008FEE70000074A904200
:1002100001D2074801E005481038064A8B0001EA80
:10022000020101D5C16070478160704710640240CF
:10023000006002407D0F7D0F002904D0016841F06D
:10024000010101607047016821F001010160704700
:100250002DE9F043016821F00101016000210160F6
:1002600041608160C1600161212141613E493E4A96
:1002700010394FF03D08904203D1C1F80880BDE825
:10028000F083394A4FF474651832904201D18D6081
:10029000F5E7354A4FF474163032904201D18E6042
:1002A000EDE7314A4FF074674832904201D18F60D8
:1002B000E5E72D4B2D4A6033984201D1CA60DEE755
:1002C000294C2B4B7834A04201D1CB60D7E7DFF823
:1002D00098C0284C0CF1900C604501D1CC60CEE761
:1002E000DFF884904FF03D5C09F1A809484502D140
:1002F000C1F80CC0C3E72049DFF87C9008394845B5
:1003000002D1C1F80080BAE7DFF86C8008F1180864
:10031000404501D10D60B2E7174D3035A84201D1FB
:100320000E60ACE7144D4835A84201D10F60A6E736
:10033000114D11496035091FA84201D10A609EE79D
:100340000D4A7832904201D10B6098E70A4A903208
:10035000904201D10C6092E7074AA83290428ED1B8
:10036000C1F800C08BE70000106002403D00002093
:10037000400F002000003D20106402400246002093
:10038000084B9A4201D2084A01E0064A103A8B0013
:1003900001D5526800E01268044B1A400A4200D0AE
:1003A0000120704710640240006002407D0F7D0F05
:1003B00030B50368124A1340CC680A682243D1E979
:1003C00005452C432243CC6922430C6A22434C6AE4
:1003D00022438C6A22434C6B22438C6B22431A4388
:1003E0000260426922F00703D1E90B2422431A4339
:1003F00042610A6942604A6882608968C16030BDB2
:100400003F801CF07047000010B54949884209D16F
:100410000121084600F012F90021BDE8104001203A
:1004200000F00CB94349884209D10121022000F0B3
:1004300005F90021BDE81040022000F0FFB83E4958
:10044000884209D10121042000F0F8F80021BDE81C
:100450001040042000F0F2B83849884209D1012147
:10046000082000F0EBF80021BDE81040082000F063
:10047000E5B83349884209D10121102000F0DEF8A7
:100480000021BDE81040102000F0D8B82D49884266
:1004900009D10121202000F0D1F80021BDE8104051
:1004A000202000F0CBB82849884209D10121402002
:1004B00000F0C4F80021BDE81040402000F0BEB8B4
:1004C0002249884209D10121802000F0B7F800219B
:1004D000BDE81040802000F0B1B81D4988420AD123
:1004E00084150121204600F0A9F82046BDE81040FF
:1004F000002100F0A3B8174988420AD14415012110
:10050000204600F09BF82046BDE81040002100F096
:1005100095B8114988420AD104150121204600F0FE
:100520008DF82046BDE81040002100F087B810BDCE
:10053000000002400004024000080240000C02409B
:10054000001002400014024000180240001C02404B
:100550000020024000240240002802402DE9F04122
:10056000002201274FF0030C07FA02F50B682B401D
:10057000AB422CD1066853000CFA03F4A643066084
:100580000E79D0F800809E4046EA080606600E7993
:10059000012E01D0022E12D18668A64386604E79C4
:1005A000D0F808809E4046EA080686604668AE435A
:1005B000466045688E799640B6B235434560C56859
:1005C000A543C560CC799C40C3681C43C460521CE1
:1005D000102AC9D3BDE8F08110B54B07DB0E9A4055
:1005E000C90800EB8100016A0F249C40A14301620D
:1005F000016A1143016210BDFEE7FEE7704709077B
:10060000090E002806DA00F00F0000F1E02080F863
:10061000141D704700F1E02080F800147047704707
:10062000054A002903D01168014311607047116821
:10063000814311607047000030380240054A0029AC
:1006400003D0116801431160704711688143116044
:100650007047000010380240054A002903D0116895
:1006600001431160704711688143116070470000B9
:1006700020380240054A002903D011680143116067
:100680007047116881431160704700004438024090
:10069000054A002903D011680143116070471168B1
:1006A000814311607047000024380240002904D0C3
:1006B000018841F0400101807047018821F040012C
:1006C00001807047F0B591B001210805FFF7D2FF16
:1006D00001212020FFF7A4FF01218805FFF7A0FFDB
:1006E0003A4F3846FFF790FE3846FFF78DFE384602
:1006F000FFF78AFE052207213846FFF76DFF052226
:1007000008213846FFF768FF052209213846FFF720
:1007100063FF02258DF840508DF8415000248DF87C
:1007200042408DF8435080200F900FA93846FFF7C4
:1007300015FFE8010F900FA93846FFF70FFF2E02B3
:100740000F960FA93846FFF709FF214800F050F82F
:10075000204804808480C5800121018146813821A0
:100760008181C481072101821B4F3846FFF770FD4C
:10077000194E183E3046FFF76BFD642004900B9431
:100780000C940D94089468020690099410480C305B
:1007900001900E940794059428040A904FF0606528
:1007A0000095402003900B48C838029069463846AF
:1007B000FFF7FEFD009503940648643802906946F1
:1007C0003046FFF7F5FD11B0F0BD00000014024007
:1007D00000500140E0000020A0640240002A03D045
:1007E00082880A438280704782888A438280704769
:1007F00010B52A4988420AD1841401212046FFF706
:1008000047FF2046BDE810400021FFF741BF2449C3
:1008100088420AD1041401212046FFF71DFF20461B
:10082000BDE810400021FFF717BF1E4988420AD1DA
:10083000C41301212046FFF70FFF2046BDE81040FA
:100840000021FFF709BF184988420AD14414012149
:100850002046FFF71DFF2046BDE810400021FFF7AE
:1008600017BF124988420AD101210C052046FFF723
:100870000FFF2046BDE810400021FFF709BF0C49DB
:1008800088420AD101214C052046FFF701FF20468E
:10089000BDE810400021FFF7FBBE10BD0030014055
:1008A00000380040003C004000340140005001404E
:1008B0000054014030B5028802F441530A884C8844
:1008C000CD8822438C882C4322430C8922434C89B7
:1008D00022438C892243CC8922431A430280828B93
:1008E00022F400628283098A018230BD70470000D1
:1008F0001CB50021019100912E4A106840F480300F
:1009000010604FF4A043106800F40030009001988C
:10091000401C0190009810B901989842F3D11068DA
:10092000800302D50120009000E00091009801288A
:100930003FD120484030016841F0805101601E499C
:10094000086840F4404008601A48083003680360B3
:10095000036843F400430360036843F4A053036057
:10096000041F164B2360136843F0807313601368F1
:100970009B01FCD50A6842F480320A604A68D203BF
:10098000FCD50A6842F400320A604A689203FCD53A
:100990000B4A40F205711160016821F0030101600A
:1009A000016841F0020101600168C1F3810102297F
:1009B000FAD11CBD0038024000700040195A4007AF
:1009C000003C024070B5104864210068B0FBF1F1B2
:1009D000491E4FF0FF35B1F1807F01D301210BE0BB
:1009E0004FF0E02461610F212846FFF708FE002048
:1009F000A06107202061002101B1FEE72846BDE883
:100A000070400021FFF7FBBD000000207047000090
:100A100010B51248016841F4700101601048016886
:100A200041F0010101600E4A0021083211600268A4
:100A30000C4B1A400260031D0B4A1A60026822F434
:100A40008022026006480C300160FFF751FF034925
:100A50004FF000608039086010BD000088ED00E0B4
:100A600000380240FFFFF6FE10300024FEE702E0EF
:100A700008C8121F08C1002AFAD170477047002029
:100A800001E001C1121F002AFBD17047FFF71AFED7
:100A9000FFF798FF484800264680DFF8208101468E
:100AA0004046FFF707FF464D01212846FFF7C4FBEC
:100AB000434F0121183F3846FFF7BEFB01220221B8
:100AC0004046FFF78BFE012211464046FFF786FEA7
:100AD00001214046FFF7EAFDDFF8E8A0DFF8E890E3
:100AE0003A4C51463846FFF749FC0028F9D02660B9
:100AF000314B1A20C83B0AE02168B1FBF0F200FB41
:100B000012112268613199542168491C21602168C1
:100B10006429F1D300212846FFF78EFB4946284679
:100B2000FFF774FB01212846FFF786FB494628465C
:100B3000FFF724FC0028F9D049462846FFF766FB5A
:100B400051463846FFF762FB00212846FFF774FB49
:100B500000213846FFF770FB002202214046FFF7D4
:100B60003DFE002201214046FFF738FE00214046AD
:100B7000FFF79CFD266042F2107102E02068401CE5
:100B8000206020688842F9D301212846FFF754FBF2
:100B900001213846FFF750FB012202214046FFF7B2
:100BA0001DFE012211464046FFF718FE0121404676
:100BB000FFF77CFD95E70000E000002000500140B9
:100BC000A064024000080020000020201400002043
:100BD000F00B000800000020180000006E0A00085A
:100BE000080C000818000020E00400007E0A00083D
:100BF0000095BA0A00000000000000000102030492
:080C00000607080900000000CE
:04000005080001AD41
:00000001FF
