:020000040800F2
:1000000008050020C1010008770D0008150D000843
:10001000750D000873070008311400080000000087
:10002000000000000000000000000000C5110008F2
:10003000890A000800000000010E0008E51200080F
:10004000DB010008DB010008DB010008DB01000820
:10005000DB010008DB010008DB010008DB01000810
:10006000DB010008DB010008DB010008DB01000800
:10007000DB010008DB010008DB010008DB010008F0
:10008000DB010008DB010008DB010008DB010008E0
:10009000DB010008DB010008DB010008DB010008D0
:1000A000DB010008DB010008DB010008DB010008C0
:1000B000DB010008DB010008DB010008DB010008B0
:1000C000DB010008DB010008DB010008DB010008A0
:1000D000DB010008DB010008DB010008DB01000890
:1000E000DB010008DB010008DB010008DB01000880
:1000F000DB010008DB010008DB010008DB01000870
:10010000DB010008DB010008DB010008DB0100085F
:10011000DB010008DB010008DB010008DB0100084F
:1001200075070008DB010008DB0100088D080008E6
:10013000DB010008DB010008DB010008DB0100082F
:10014000DB010008DB010008DB010008DB0100081F
:10015000DB010008DB010008DB010008DB0100080F
:10016000DB010008DB010008DB010008DB010008FF
:10017000DB010008DB010008DB010008DB010008EF
:10018000DB010008DB010008DB010008DB010008DF
:10019000DB010008DB010008DB010008DB010008CF
:1001A000DB010008DB010008DB010008DFF80CD0F0
:1001B00000F030FA004800475D1D000808050020E7
:1001C0000648804706480047FEE7FEE7FEE7FEE7F1
:1001D000FEE7FEE7FEE7FEE7FEE7FEE7E9120008BE
:1001E000AD010008D2B201E000F8012B491EFBD29C
:1001F00070470022F6E710B513460A460446194632
:10020000FFF7F0FF204610BD421C10F8011B00292B
:10021000FBD1801A704730B50B46014600202022E2
:10022000012409E021FA02F59D4205D303FA02F503
:10023000491B04FA02F52844151EA2F10102F1DC63
:1002400030BD2DE9F05F0546002092469B4688466A
:100250000646814640241BE0284641464746224642
:1002600000F0F9F953465A46C01A914110D311468D
:100270001846224600F0E0F92D1A67EB01084F46B8
:1002800022460120002100F0D7F917EB00094E416A
:10029000201EA4F10104DFDC484631462A464346CD
:1002A000BDE8F09F2DE9FE4F804681EA0300C00FB4
:1002B0000C46009021F0004123F00045B8EB02000D
:1002C000A94105D24046214690461C460B460246AF
:1002D00023F00040104347D0270DC7F30A00C3F3B3
:1002E0000A510290401A019040286BDAC3F31300C0
:1002F00040F4801B0098924620B10023D2EB030A01
:1003000063EB0B0B01985946C0F14002504600F0D8
:1003100093F906460D4650465946019A00F0ABF94E
:1003200010EB08006141002487EA115284EAE77368
:100330001A4340D0009A62B3019A012A4FEA075249
:1003400015DC001B61EB02014FF0004202EA07528C
:10035000CDE90042001C41F5801132462B4600F0E9
:10036000ABF903B0BDE8F08F40462146F9E7001B2A
:1003700061EB0201001C41F5801300185B4120185D
:10038000A2F5001747EB030140EAD570B6196D419D
:1003900011E06D084FEA360645EAC0754FEA07528C
:1003A000001B61EB0201001C41F5801149084FEA76
:1003B00030000019514132462B4603B0BDE8F04FE2
:1003C00000F06BB90098012240000023D0EB02023C
:1003D00063EBE073009821464FEAE074B8EB00004D
:1003E00061EB0401E9E783F000435BE781F0004142
:1003F00058E72DE9FE4F81EA030404F0004421F0A0
:10040000004100944FF0000B23F0004350EA010438
:100410005ED052EA03045BD0C3F30A54C1F30A5519
:100420002C44A4F2F3340194A0FB0254C1F3130151
:1004300041F48011C3F3130343F4801301FB02441E
:1004400000FB034E840A970A44EA815447EA835723
:10045000A4FB076802958D0A05FB07854FEA932CDC
:1004600004FB0C542705029D4FEA065847EA16374D
:10047000B5EB08056EEB070C870E920E47EA811765
:1004800042EA8312A7FB0201B6EB0B0164EB000406
:100490002B0D43EA0C335E1844EB1C50DA465146F0
:1004A000E7FB0201C5F313044FEA0B3343EA14538D
:1004B0004FEA0432019C43EA0603A4F10C040294BF
:1004C000009CCDE900B400F0F7F803B0BDE8F08F70
:1004D00000200146F9E72DE9F04D81EA030404F01C
:1004E000004B21F0004514464FF0000A23F0004174
:1004F00050EA050220D054EA01021DD0C5F30A5784
:100500000246C5F31303C1F31300C1F30A5640F4C6
:10051000801543F48013A7EB0608101BD64608F29B
:10052000FD3873EB050002D308F1010801E09218D1
:100530005B41B8F1000F03DA00200146BDE8F08D01
:1005400000204FF48011064684460EE0171B73EB23
:10055000050705D3121B63EB050306434CEA010CA8
:1005600049084FEA300092185B4150EA0107EDD18B
:1005700052EA030012D082EA040083EA050108432C
:1005800005D0101BAB4106D20122002306E0002259
:100590004FF0004302E06FF0010253101AEB060027
:1005A0004CEB085110EB0A0041EB0B01BDE8F04D9C
:1005B00000F073B8C1F30A52C1F3130140F2FF33E4
:1005C00041F480119A4202DA00200146704740F25D
:1005D00033439A42A2F2334202DC524200F03BB86B
:1005E00000F02AB830B5041E71F1000404DB4FF0AE
:1005F0000044404264EB0101141E73F1000405DB6A
:100600001C464FF00043524263EB0403994208BF7B
:10061000904230BD064C074D06E0E06840F0010313
:1006200094E8070098471034AC42F6D3FFF7C2FDB8
:10063000EC1D00080C1E0008202A04DB203A00FAFA
:1006400002F1002070479140C2F1200320FA03F329
:10065000194390407047202A04DB203A21FA02F027
:100660000021704721FA02F3D040C2F120029140EC
:10067000084319467047202A06DBCB17203A41FA77
:1006800002F043EAE07306E041FA02F3D040C2F11F
:100690002002914008431946704710B5141E73F1AB
:1006A000000408DA401C41F1000192185B411A4332
:1006B00001D120F0010010BD2DE9F04D92469B467E
:1006C00011B1B1FA81F202E0B0FA80F22032904624
:1006D000FFF7B2FF04460F4640EA0A0041EA0B0169
:1006E00053465A46084313D0114653EA010019D025
:1006F000C8F140025046FFF7AEFF05460E46504691
:1007000059464246FFF798FF084305D0012004E010
:1007100020463946BDE8F08D0020054346EAE076E4
:100720002C4337430A986305E40AA0EB0800002233
:10073000FD0A44EA47540A3002D500200146E9E7A1
:10074000010510196941DDE9084500196941BDE855
:10075000F04DA2E710B507E003780C78A34201D072
:10076000002010BD401C491C521E92B2F4D2012040
:1007700010BDFEE72DE9F047DFF8DC8000214046A0
:1007800000F09CF8DFF8D0900021A9F14809484614
:1007900000F094F8314F00220221384600F0D6FBD9
:1007A00000220121384600F0D1FB64212C48FFF7DC
:1007B00020FD2CA0FFF728FD82B22C4929A0FFF7CD
:1007C000C9FF274D294E012809D1002402E0305DE0
:1007D0002855641C23A0FFF717FDA042F7D824A0DA
:1007E000FFF712FD82B2214921A0FFF7B3FF0128D4
:1007F00014D1002402E0305D2855641C1CA0FFF7D2
:1008000003FDA042F7D83A21601C29559FED1B0B30
:10081000284453EC102B1BA100F01CFE4FF0C051DC
:10082000404600F035F81849484600F031F80121FB
:10083000404600F043F80121484600F03FF801220D
:100840000221384600F082FB3846BDE8F04701221D
:10085000114600F07BBB00005864024000300140AC
:100860002800002068656C6C6F0000008C00002080
:1008700056414C55455F787831000000000000A0DB
:10088000993956402566000020000010704700008E
:10089000074A904201D2074801E005481038064A4D
:1008A0008B0001EA020101D5C16070478160704789
:1008B00010640240006002407D0F7D0F002904D0CB
:1008C000016841F0010101607047016821F00101F8
:1008D000016070472DE9F043016821F001010160DA
:1008E0000021016041608160C1600161212141619D
:1008F0003E493E4A10394FF03D08904203D1C1F8BD
:100900000880BDE8F083394A4FF47465183290428C
:1009100001D18D60F5E7354A4FF4741630329042BC
:1009200001D18E60EDE7314A4FF074674832904252
:1009300001D18F60E5E72D4B2D4A6033984201D1FC
:10094000CA60DEE7294C2B4B7834A04201D1CB6042
:10095000D7E7DFF898C0284C0CF1900C604501D126
:10096000CC60CEE7DFF884904FF03D5C09F1A80938
:10097000484502D1C1F80CC0C3E72049DFF87C909C
:100980000839484502D1C1F80080BAE7DFF86C8029
:1009900008F11808404501D10D60B2E7174D303518
:1009A000A84201D10E60ACE7144D4835A84201D1F0
:1009B0000F60A6E7114D11496035091FA84201D10A
:1009C0000A609EE70D4A7832904201D10B6098E7A9
:1009D0000A4A9032904201D10C6092E7074AA8324D
:1009E00090428ED1C1F800C08BE700001060024039
:1009F0003D000020400F002000003D201064024018
:100A00000B0609D522B1436943F08003436103E03B
:100A1000436923F080034361802905D001F01E0162
:100A20001AB102680A430260704702688A43026092
:100A30007047000030B50368124A1340CC680A685A
:100A40002243D1E905452C432243CC6922430C6A59
:100A500022434C6A22438C6A22434C6B22438C6BA8
:100A600022431A430260426922F00703D1E90B24B2
:100A700022431A4342610A6942604A688260896877
:100A8000C16030BD3F801CF07047000070B586B07B
:100A90000121084600F0B6F90121102000F0DCF930
:100AA0001E4E07220A21304600F024F907220921B0
:100AB000304600F01FF900248DF8164001208DF813
:100AC000170002258DF81450410204918DF815503D
:100AD00004A9304600F0D0F88DF814506802049054
:100AE00004A9304600F0C8F84FF4E1300090ADF8AA
:100AF0000440ADF80640ADF80840ADF80C400C20BD
:100B0000ADF80A00064C6946204600F02FFC012192
:100B1000204600F017FC06B070BD00000000024047
:100B20000010014010B54949884209D10121084609
:100B300000F076F90021BDE81040012000F070B906
:100B40004349884209D10121022000F069F90021BE
:100B5000BDE81040022000F063B93E49884209D147
:100B60000121042000F05CF90021BDE810400420C0
:100B700000F056B93849884209D10121082000F017
:100B80004FF90021BDE81040082000F049B9334971
:100B9000884209D10121102000F042F90021BDE86E
:100BA0001040102000F03CB92D49884209D10121A4
:100BB000202000F035F90021BDE81040202000F091
:100BC0002FB92849884209D10121402000F028F995
:100BD0000021BDE81040402000F022B9224988429F
:100BE00009D10121802000F01BF90021BDE810404F
:100BF000802000F015B91D4988420AD184150121D1
:100C0000204600F00DF92046BDE81040002100F01C
:100C100007B9174988420AD144150121204600F03E
:100C2000FFF82046BDE81040002100F0F9B8114956
:100C300088420AD104150121204600F0F1F820462F
:100C4000BDE81040002100F0EBB810BD00000240EC
:100C50000004024000080240000C02400010024064
:100C60000014024000180240001C02400020024014
:100C700000240240002802402DE9F0410022012713
:100C80004FF0030C07FA02F50B682B40AB422CD156
:100C9000066853000CFA03F4A64306600E79D0F8F8
:100CA00000809E4046EA080606600E79012E01D0BB
:100CB000022E12D18668A64386604E79D0F808804D
:100CC0009E4046EA080686604668AE434660456830
:100CD0008E799640B6B235434560C568A543C56078
:100CE000CC799C40C3681C43C460521C102AC9D3F1
:100CF000BDE8F08110B54B07DB0E9A40C90800EB48
:100D00008100016A0F249C40A1430162016A1143E2
:100D1000016210BDFEE700002DE9FC4101218020A9
:100D200000F070F84FF48064009401208DF8040006
:100D300000218DF806108DF807008DF805100C4F76
:100D400069463846FFF798FF6600009669463846C0
:100D5000FFF792FFA500009569463846FFF78CFF24
:100D600003481830048006800580BDE8FC8100003F
:100D7000001C0240FEE7704730B50F23C278012502
:100D80000178002A1FD0154A126802F4E062C2F509
:100D9000E062C2F30722C2F10404D3404278A240C9
:100DA00084781C401443220101F1E02181F80024E1
:100DB000007800F01F018D404009800000F1E02024
:100DC000C0F8005130BD01F01F0085404809800087
:100DD00000F1E020C0F8805130BD00000CED00E0D3
:100DE0000907090E002806DA00F00F0000F1E020E4
:100DF00080F8141D704700F1E02080F8001470475F
:100E000070470000054A002903D0116801431160B2
:100E1000704711688143116070470000303802400C
:100E2000054A002903D01168014311607047116819
:100E3000814311607047000010380240054A0029C4
:100E400003D011680143116070471168814311603C
:100E50007047000020380240054A002903D011687D
:100E600001431160704711688143116070470000B1
:100E700044380240054A002903D01168014311603B
:100E800070471168814311607047000024380240A8
:100E900070B5244B196801F00C01234C00291ED0B9
:100EA000224E04291DD008291DD00460196801F0C4
:100EB000F00109091E4A545C0168E14041601C6868
:100EC00004F4E054A40A145D21FA04F484601B685D
:100ED00003F460435B0BD25CD140C16070BD046021
:100EE000E4E70660E2E70F4A121F1168C1F380557C
:100EF000116801F03F0135B1B6FBF1F11468C4F39C
:100F00008814614305E0B4FBF1F11468C4F388145C
:100F100061431268C2F30142521C5200B1FBF2F16C
:100F20000160C3E7083802400024F40040787D01E6
:100F300014000020002904D0018841F04001018004
:100F40007047018821F0400101807047002A03D0DA
:100F500082880A438280704782888A4382807047F1
:100F600010B52A4988420AD1841401212046FFF78E
:100F700081FF2046BDE810400021FFF77BBF2449D8
:100F800088420AD1041401212046FFF757FF20466A
:100F9000BDE810400021FFF751BF1E4988420AD129
:100FA000C41301212046FFF749FF2046BDE8104049
:100FB0000021FFF743BF184988420AD14414012198
:100FC0002046FFF757FF2046BDE810400021FFF7FD
:100FD00051BF124988420AD101210C052046FFF772
:100FE00049FF2046BDE810400021FFF743BF0C49F0
:100FF00088420AD101214C052046FFF73BFF2046DD
:10100000BDE810400021FFF735BF10BD00300140A2
:1010100000380040003C00400034014000500140D6
:101020000054014030B5028802F441530A884C88CC
:10103000CD8822438C882C4322430C8922434C893F
:1010400022438C892243CC8922431A430280828B1B
:1010500022F400628283098A018230BD2DE9F047C3
:1010600092B001210803FFF7F7FE01210846FFF7C0
:10107000C9FE01218805FFF7C5FE4D4E3046FFF73A
:1010800051FD3046FFF74EFD3046FFF74BFD052280
:1010900011463046FFF72EFE052206213046FFF7A7
:1010A00029FE052207213046FFF724FE02258DF890
:1010B00044508DF8455000248DF846408DF8475037
:1010C0002020109010A93046FFF7D6FD402710973A
:1010D00010A93046FFF7D0FD8020109010A93046AF
:1010E000FFF7CAFD3348FFF73BFF33480480848095
:1010F000C58001250581690241814FF03808A0F8BB
:101100000C80C48107210182DFF8B0904846FFF7C8
:10111000E1FBDFF8A8A0AAF1480A5046FFF7DAFB86
:10112000642005900C940D940E940994A8020790E5
:101130000A94234802900F940894069468040B9034
:101140004FF0C066019604971B48C838039001A968
:101150004846FFF76FFC01960494174864380390E3
:1011600001A95046FFF766FC3B208DF800008DF882
:1011700001508DF802408DF803506846FFF7FCFDE2
:10118000012210214846FFF73BFC8DF800808DF8C6
:1011900001508DF802408DF803506846FFF7ECFDD2
:1011A000012210215046FFF72BFC12B0BDE8F0875A
:1011B0000000024000500140F0000020586402404E
:1011C0000C300140704700001CB5002101910091D6
:1011D0002E4A106840F4803010604FF4A04310682D
:1011E00000F4003000900198401C0190009810B964
:1011F00001989842F3D11068800302D50120009035
:1012000000E00091009801283FD12048403001685B
:1012100041F0805101601E49086840F44040086078
:101220001A48083003680360036843F4004303600E
:10123000036843F4A0530360041F164B2360136834
:1012400043F08073136013689B01FCD50A6842F475
:1012500080320A604A68D203FCD50A6842F4003240
:101260000A604A689203FCD50B4A40F2057111608E
:10127000016821F003010160016841F00201016091
:101280000168C1F381010229FAD11CBD0038024076
:1012900000700040195A4007003C024070B51048E9
:1012A00064210068B0FBF1F1491E4FF0FF35B1F148
:1012B000807F01D301210BE04FF0E02461610F2119
:1012C0002846FFF78DFD0020A06107202061002146
:1012D00001B1FEE72846BDE870400021FFF780BD60
:1012E000000000207047000010B51248016841F46A
:1012F000700101601048016841F0010101600E4A6F
:1013000000210832116002680C4B1A400260031D74
:101310000B4A1A60026822F48022026006480C30F0
:101320000160FFF751FF03494FF00060803908600A
:1013300010BD000088ED00E000380240FFFFF6FE1F
:1013400010300024002904D0818941F400518181AA
:101350007047818921F40051818170470246002045
:1013600012880A4200D00120704700007FB5044671
:101370000D46208A20F44051E88808432082A08945
:1013800041F20C618843A9882A8911436A89024382
:101390001143A181A08A20F44071A8890843A0824A
:1013A0006846FFF775FD1E48844202D01D488442FE
:1013B00001D1039800E00298A189090408D500EB47
:1013C000C00101EB001029684900B0FBF1F007E013
:1013D00000EBC00101EB001029688900B0FBF1F0BF
:1013E0006422B0FBF2F109010B096FF018056B43A1
:1013F00000EB8300A3891D044FF0320307D503EBF4
:10140000C000B0FBF2F000F00700084306E003EB79
:101410000010B0FBF2F000F00F00084320817FBD08
:101420000010014000140140C1F3080181807047A1
:10143000FEE700000FB4054B10B503A9044A02985B
:1014400000F0DEF810BC5DF814FB0000391D000848
:10145000240000200FB4084B10B504A902AA039879
:1014600000F0CEF8044602A9002000F060FC2046FF
:1014700010BC5DF814FB00002F1D000802E008C836
:10148000121F08C1002AFAD170477047002001E0FE
:1014900001C1121F002AFBD1704700002DE9FF5F38
:1014A000DDE90220010DDDF838B0024318D044F622
:1014B0001050A1F2FF3141430D140F98012820D0A4
:1014C000A5EB0B00401C5FEA000A4FF00004474EFA
:1014D000DFF81C91A046504616D5CAF1000728E057
:1014E0000F98012443A2012808D0002100980F9BE7
:1014F000C0E90021C0E90243BDE8FF9F6FEA0B018C
:10150000F4E7CBF10000DEE7074612E0F80707D06A
:101510002246334640464946FEF76BFF80468946E1
:101520002246334610461946FEF763FF04460E4630
:101530007F10002FEAD1DDE90201BAF1000F424627
:101540004B4602DAFEF755FF01E0FEF7C4FF044602
:101550000E460022284BFFF745F803D84FF0FF3026
:10156000014607E00022254B20463146FEF79AFE51
:10157000FFF720F8102409E0002C0ADB0A220023E0
:10158000FEF75FFE019B30321A55641E50EA0102DD
:10159000F2D1641C019AC4F1110314440F9A012A78
:1015A00003D0012208430DD10AE0084304D00020F3
:1015B0004FF0110B0F9080E7A3EB0B056D1E0DE0B4
:1015C0005B4504DD4FF0000205F1010504E003DA9C
:1015D0004FF00002A5F10105002AECD000980F9908
:1015E000C0E90231C0E9004586E700000000244060
:1015F0000000F03F300000000000F0430000E03F3A
:101600002DE9FF4F95B09B468946064600250FE21F
:10161000252877D100242746F84A0121059400E0C7
:10162000044316F8013F203B01FA03F01042F7D1C2
:1016300030782A2811D06FF02F033078A0F13002D3
:10164000092A16D8059A44F0020402EB820203EB41
:1016500042021044761C0590EFE759F8042B0592DE
:10166000002A03DA504244F40054059044F0020486
:10167000761C30782E2816D116F8010F44F0040499
:101680002A280DD06FF02F023078A0F13003092BFB
:1016900009D807EB870302EB4303C718761CF3E76F
:1016A00059F8047B761C30786C280FD006DC4C2867
:1016B00017D068280DD06A2814D104E0742810D0FF
:1016C0007A280FD10DE044F400140AE044F48014A9
:1016D00001E044F440147278824202D104F580148F
:1016E000761C761C307866280BD013DC582877D00F
:1016F00009DC002875D04528F6D04628F4D04728C4
:101700001AD19DE118E0632835D0642879D0652886
:1017100012D195E1702873D008DC6728F1D06928D0
:101720006FD06E280DD06F2806D1B5E073282CD06D
:10173000752875D0782874D05A46179990476D1C33
:1017400075E1C4F30250022809D003280DD0D9F85E
:10175000001004280DD00D6009F1040967E1D9F8E3
:101760000010EA17C1E90052F6E7D9F800100D8021
:10177000F2E70D70F0E719F8041B8DF80010002057
:101780008DF80100EA46012003E059F804AB4FF060
:10179000FF3061074FF0000102D40DE008F10101B4
:1017A0008846B9420FDA8045F8DB1AF8081000299C
:1017B000F4D108E008F1010188468142FADB1AF809
:1017C00008100029F6D105985B46A0EB08072146D2
:1017D0003846179A00F094FA284400EB080507E011
:1017E0004DE029E10DE01AF8010B5A461799904790
:1017F000B8F10108F7D25B4621463846179A13E143
:1018000042E00A220092C4F302524FF0000A022A78
:1018100008D059F804CB032A4FEAEC710AD00DE046
:1018200029E02AE009F1070121F00702F2E802C1EC
:10183000914609E00FFA8CFC4FEAEC71042A03D1BF
:101840004FFA8CFC4FEAEC71002907DA0A460021B6
:10185000DCF1000C61EB02012D2202E0220504D52F
:101860002B228DF80420012203E0E20701D0202280
:10187000F7E7904659E00A2102E010220DE010211E
:101880004FF0000A00910BE010224FF0000A44F0E4
:1018900004040827009203E008224FF0000A009297
:1018A000C4F30252022A05D059F804CB0021032ABE
:1018B00008D009E009F1070121F00702F2E802C1AE
:1018C000914605E01FFA8CFC042A01D10CF0FF0CB4
:1018D0004FF00008220728D5702806D0009B83F01F
:1018E000100353EA0A0305D00EE040228DF80420CD
:1018F000012208E05CEA010206D030228DF80420C3
:101900008DF8050002229046009B83F0080353EAFD
:101910000A030AD15CEA010201D1620705D530222F
:101920008DF804204FF001087F1E582804D034A001
:1019300003900EA802900DE036A0F9E753466046EA
:10194000009AFEF77EFC84460398825C0298401E53
:10195000029002705CEA0100F0D1029806A9081A10
:1019600000F1200A600702D524F4803400E001274A
:10197000574502DDA7EB0A0000E0002000EB0A015A
:10198000009005984144401A0590E00306D45B4658
:101990002146179A059800F0B3F90544002706E0A0
:1019A00001A85A46C05D179990476D1C7F1C47459A
:1019B000F6DBE0030CD55B462146179A059800F04C
:1019C0009FF9054404E030205A46179990476D1C52
:1019D0000099481E00900029F5DC08E00298029961
:1019E0005A460078491C0291179990476D1CBAF12C
:1019F0000001AAF1010AF1DC65E1000009280100FB
:101A00003031323334353637383961626364656674
:101A10000000000030313233343536373839414236
:101A2000434445460000000000F058F90544761C88
:101A3000307800287FF4ECAD19B02846BDE8F08F6F
:101A4000620700D4062709F1070222F0070CFCE820
:101A50000223E14603F000485FEA080C02D00FF2CF
:101A6000702C0DE05FEA045C02D50FF2682C07E0F1
:101A70005FEAC47C02D00FF2602C01E0AFF2700C80
:101A80004FF0FF3823F00043CDF850C065280CD04C
:101A900006DC452809D046281DD047283DD13DE029
:101AA000662818D067287ED138E00021112F01DB8D
:101AB000112000E0781CCDE9000106A90EA8FFF76F
:101AC000EDFCDDE90F010E9A03910021009207F170
:101AD000010A04914DE04FF000400097CDE901105C
:101AE00006A90EA8FFF7DAFCDDE90F0203920E9BB0
:101AF00011990022DDF80CA00093049211B9791C11
:101B000000EB010AB7EB0A0004D4C0F1FF3007F183
:101B1000010A0490AAEB0700019044E0012F00DACB
:101B200001270021112F01DD112000E03846CDE909
:101B3000000106A90EA8FFF7B1FCDDE90F010E9A1E
:101B40000391002104910092BA4621070CD4039915
:101B5000514500DA8A46BAF1010F05DD009AAAF173
:101B60000101515C302908D0B84202DA10F1040FAB
:101B700006DA0121CDE9011015E0AAF10101E9E73A
:101B8000002805DC049901440491AAEB000102E05D
:101B9000411C514500DD8A460499401A401C0190C1
:101BA0004FF000400290200704D40198504501DB1B
:101BB000CDF8048000208DF84F0002980DF14F07FA
:101BC000B0F1004F25D02B200E9002984FF0020864
:101BD00000280CDA404202902D200E9007E00A21E6
:101BE0000298FEF718FB3031029007F8011DB8F19A
:101BF0000001A8F10108F2DC02980028EFD1791E5B
:101C00000E980870307800F0200040F0450007F88A
:101C1000020D12A8C01B00F107081498007800B14B
:101C2000012000EB0A01019801EBE07105984144A5
:101C3000401A401E0590E00306D45B462146179AE1
:101C4000059800F05DF805441498007818B15A46DC
:101C5000179990476D1CE00324D55B462146179ADF
:101C6000059800F04DF805441CE00498002807DBB7
:101C7000DDE90301884203DD0098405C179901E02B
:101C8000179930205A469047049805F10105401CE9
:101C900004900198401E019004D12E205A461799B5
:101CA00090476D1CBAF10001AAF1010ADDDC05E0E4
:101CB00017F8010B5A46179990476D1CB8F10001AF
:101CC000A8F10108F4DC5B462146179A0598ABE6BB
:101CD0002D0000002B000000200000002DE9F04145
:101CE000044600251E461746880404D405E03946FC
:101CF0002020B0476D1C641EF9D52846BDE8F08150
:101D00002DE9F041044600251E469046C80301D542
:101D1000302700E02027880404D505E041463846F6
:101D2000B0476D1C641EF9D52846BDE8F0810A68ED
:101D3000531C0B601070704770B50446064DE1B23D
:101D40002846FFF771FB80212846FFF707FB002894
:101D5000F9D0204670BD000000100140FEF7DCFF06
:101D600018484FF480610180C11401801549801426
:101D7000891C0880FEF78AFE13A0FFF75BFBFFF7C4
:101D80006DF9FFF78BFA164900204880154C204664
:101D9000FFF748F901211448FEF790FD1248012190
:101DA0004838FEF78BFD012202212046FFF7CEF8CE
:101DB000012211462046FFF7C9F801212046FFF70E
:101DC000B9F8FEE7181C02400D0A20535049204480
:101DD0004D41204D6F64652054455354200D0A0039
:101DE000F000002000300140586402400C1E000842
:101DF00000000020280000007C140008341E0008A9
:101E000028000020E00400008C1400080095BA0AA5
:101E1000000000000000000001020304060708099A
:101E20000000000001020304010203040607080980
:041E300000000000AE
:04000005080001AD41
:00000001FF
